{
  "_format": "hh-sol-artifact-1",
  "contractName": "Controller",
  "sourceName": "contracts/Controller.sol",
  "abi": [
    {
      "anonymous": false,
      "inputs": [
        {
          "indexed": true,
          "internalType": "address",
          "name": "previousOwner",
          "type": "address"
        },
        {
          "indexed": true,
          "internalType": "address",
          "name": "newOwner",
          "type": "address"
        }
      ],
      "name": "OwnershipTransferred",
      "type": "event"
    },
    {
      "anonymous": false,
      "inputs": [
        {
          "indexed": true,
          "internalType": "bytes32",
          "name": "hash",
          "type": "bytes32"
        },
        {
          "indexed": true,
          "internalType": "uint256",
          "name": "blockNumber",
          "type": "uint256"
        }
      ],
      "name": "makeCommit",
      "type": "event"
    },
    {
      "anonymous": false,
      "inputs": [
        {
          "indexed": true,
          "internalType": "bytes32",
          "name": "hash",
          "type": "bytes32"
        },
        {
          "indexed": true,
          "internalType": "uint256",
          "name": "blockNumber",
          "type": "uint256"
        }
      ],
      "name": "makeReveal",
      "type": "event"
    },
    {
      "inputs": [
        {
          "internalType": "bytes32",
          "name": "hashOfOrder",
          "type": "bytes32"
        }
      ],
      "name": "commit",
      "outputs": [],
      "stateMutability": "nonpayable",
      "type": "function"
    },
    {
      "inputs": [
        {
          "internalType": "bytes32",
          "name": "",
          "type": "bytes32"
        }
      ],
      "name": "commitments",
      "outputs": [
        {
          "internalType": "bytes32",
          "name": "hash",
          "type": "bytes32"
        },
        {
          "internalType": "bool",
          "name": "complete",
          "type": "bool"
        }
      ],
      "stateMutability": "view",
      "type": "function"
    },
    {
      "inputs": [],
      "name": "owner",
      "outputs": [
        {
          "internalType": "address",
          "name": "",
          "type": "address"
        }
      ],
      "stateMutability": "view",
      "type": "function"
    },
    {
      "inputs": [],
      "name": "renounceOwnership",
      "outputs": [],
      "stateMutability": "nonpayable",
      "type": "function"
    },
    {
      "inputs": [
        {
          "internalType": "string",
          "name": "tickerSymbol",
          "type": "string"
        },
        {
          "internalType": "string",
          "name": "orderType",
          "type": "string"
        },
        {
          "internalType": "string",
          "name": "accountType",
          "type": "string"
        },
        {
          "internalType": "uint256",
          "name": "quantity",
          "type": "uint256"
        },
        {
          "internalType": "uint256",
          "name": "price",
          "type": "uint256"
        },
        {
          "internalType": "uint256",
          "name": "timeInForce",
          "type": "uint256"
        },
        {
          "internalType": "enum Controller.Direction",
          "name": "direction",
          "type": "uint8"
        }
      ],
      "name": "reveal",
      "outputs": [],
      "stateMutability": "nonpayable",
      "type": "function"
    },
    {
      "inputs": [
        {
          "internalType": "bytes32",
          "name": "",
          "type": "bytes32"
        }
      ],
      "name": "revealed",
      "outputs": [
        {
          "internalType": "bool",
          "name": "",
          "type": "bool"
        }
      ],
      "stateMutability": "view",
      "type": "function"
    },
    {
      "inputs": [
        {
          "internalType": "address",
          "name": "newOwner",
          "type": "address"
        }
      ],
      "name": "transferOwnership",
      "outputs": [],
      "stateMutability": "nonpayable",
      "type": "function"
    }
  ],
  "bytecode": "0x608060405234801561001057600080fd5b5061002d61002261003260201b60201c565b61003a60201b60201c565b6100fe565b600033905090565b60008060009054906101000a900473ffffffffffffffffffffffffffffffffffffffff169050816000806101000a81548173ffffffffffffffffffffffffffffffffffffffff021916908373ffffffffffffffffffffffffffffffffffffffff1602179055508173ffffffffffffffffffffffffffffffffffffffff168173ffffffffffffffffffffffffffffffffffffffff167f8be0079c531659141344cd1fd0a4f28419497f9722a3daafe3b4186f6b6457e060405160405180910390a35050565b610c328061010d6000396000f3fe608060405234801561001057600080fd5b506004361061007d5760003560e01c80638da5cb5b1161005b5780638da5cb5b146100ed578063a696897a1461010b578063f14fcbc814610127578063f2fde38b146101435761007d565b80630b927b3214610082578063715018a6146100b2578063839df945146100bc575b600080fd5b61009c6004803603810190610097919061058e565b61015f565b6040516100a991906105d6565b60405180910390f35b6100ba61017f565b005b6100d660048036038101906100d1919061058e565b610193565b6040516100e4929190610600565b60405180910390f35b6100f56101c4565b604051610102919061066a565b60405180910390f35b61012560048036038101906101209190610826565b6101ed565b005b610141600480360381019061013c919061058e565b6102e0565b005b61015d60048036038101906101589190610948565b610377565b005b60026020528060005260406000206000915054906101000a900460ff1681565b6101876103fa565b6101916000610478565b565b60016020528060005260406000206000915090508060000154908060010160009054906101000a900460ff16905082565b60008060009054906101000a900473ffffffffffffffffffffffffffffffffffffffff16905090565b6101f56103fa565b6000878787878787876040516020016102149796959493929190610a7a565b6040516020818303038152906040528051906020012090506001600082815260200190815260200160002060000154811461024e57600080fd5b600180600083815260200190815260200160002060010160006101000a81548160ff02191690831515021790555060016002600083815260200190815260200160002060006101000a81548160ff02191690831515021790555043817fd06d2cd2a7a444279c9575b4fed2c99c89a879973c8ddc9c575bb45ae9a960f860405160405180910390a35050505050505050565b6102e86103fa565b6000604051806040016040528083815260200160001515815250905080600160008481526020019081526020016000206000820151816000015560208201518160010160006101000a81548160ff02191690831515021790555090505043827f6d0ba7cc8c3c3b569f47c7e16a40343933f34ad78cdf8438d1b838efaf0cb18760405160405180910390a35050565b61037f6103fa565b600073ffffffffffffffffffffffffffffffffffffffff168173ffffffffffffffffffffffffffffffffffffffff16036103ee576040517f08c379a00000000000000000000000000000000000000000000000000000000081526004016103e590610b70565b60405180910390fd5b6103f781610478565b50565b61040261053c565b73ffffffffffffffffffffffffffffffffffffffff166104206101c4565b73ffffffffffffffffffffffffffffffffffffffff1614610476576040517f08c379a000000000000000000000000000000000000000000000000000000000815260040161046d90610bdc565b60405180910390fd5b565b60008060009054906101000a900473ffffffffffffffffffffffffffffffffffffffff169050816000806101000a81548173ffffffffffffffffffffffffffffffffffffffff021916908373ffffffffffffffffffffffffffffffffffffffff1602179055508173ffffffffffffffffffffffffffffffffffffffff168173ffffffffffffffffffffffffffffffffffffffff167f8be0079c531659141344cd1fd0a4f28419497f9722a3daafe3b4186f6b6457e060405160405180910390a35050565b600033905090565b6000604051905090565b600080fd5b600080fd5b6000819050919050565b61056b81610558565b811461057657600080fd5b50565b60008135905061058881610562565b92915050565b6000602082840312156105a4576105a361054e565b5b60006105b284828501610579565b91505092915050565b60008115159050919050565b6105d0816105bb565b82525050565b60006020820190506105eb60008301846105c7565b92915050565b6105fa81610558565b82525050565b600060408201905061061560008301856105f1565b61062260208301846105c7565b9392505050565b600073ffffffffffffffffffffffffffffffffffffffff82169050919050565b600061065482610629565b9050919050565b61066481610649565b82525050565b600060208201905061067f600083018461065b565b92915050565b600080fd5b600080fd5b6000601f19601f8301169050919050565b7f4e487b7100000000000000000000000000000000000000000000000000000000600052604160045260246000fd5b6106d88261068f565b810181811067ffffffffffffffff821117156106f7576106f66106a0565b5b80604052505050565b600061070a610544565b905061071682826106cf565b919050565b600067ffffffffffffffff821115610736576107356106a0565b5b61073f8261068f565b9050602081019050919050565b82818337600083830152505050565b600061076e6107698461071b565b610700565b90508281526020810184848401111561078a5761078961068a565b5b61079584828561074c565b509392505050565b600082601f8301126107b2576107b1610685565b5b81356107c284826020860161075b565b91505092915050565b6000819050919050565b6107de816107cb565b81146107e957600080fd5b50565b6000813590506107fb816107d5565b92915050565b6002811061080e57600080fd5b50565b60008135905061082081610801565b92915050565b600080600080600080600060e0888a0312156108455761084461054e565b5b600088013567ffffffffffffffff81111561086357610862610553565b5b61086f8a828b0161079d565b975050602088013567ffffffffffffffff8111156108905761088f610553565b5b61089c8a828b0161079d565b965050604088013567ffffffffffffffff8111156108bd576108bc610553565b5b6108c98a828b0161079d565b95505060606108da8a828b016107ec565b94505060806108eb8a828b016107ec565b93505060a06108fc8a828b016107ec565b92505060c061090d8a828b01610811565b91505092959891949750929550565b61092581610649565b811461093057600080fd5b50565b6000813590506109428161091c565b92915050565b60006020828403121561095e5761095d61054e565b5b600061096c84828501610933565b91505092915050565b600081519050919050565b600082825260208201905092915050565b60005b838110156109af578082015181840152602081019050610994565b60008484015250505050565b60006109c682610975565b6109d08185610980565b93506109e0818560208601610991565b6109e98161068f565b840191505092915050565b6109fd816107cb565b82525050565b7f4e487b7100000000000000000000000000000000000000000000000000000000600052602160045260246000fd5b60028110610a4357610a42610a03565b5b50565b6000819050610a5482610a32565b919050565b6000610a6482610a46565b9050919050565b610a7481610a59565b82525050565b600060e0820190508181036000830152610a94818a6109bb565b90508181036020830152610aa881896109bb565b90508181036040830152610abc81886109bb565b9050610acb60608301876109f4565b610ad860808301866109f4565b610ae560a08301856109f4565b610af260c0830184610a6b565b98975050505050505050565b7f4f776e61626c653a206e6577206f776e657220697320746865207a65726f206160008201527f6464726573730000000000000000000000000000000000000000000000000000602082015250565b6000610b5a602683610980565b9150610b6582610afe565b604082019050919050565b60006020820190508181036000830152610b8981610b4d565b9050919050565b7f4f776e61626c653a2063616c6c6572206973206e6f7420746865206f776e6572600082015250565b6000610bc6602083610980565b9150610bd182610b90565b602082019050919050565b60006020820190508181036000830152610bf581610bb9565b905091905056fea264697066735822122015bdd3124a369fdd9a4654a24b837d8e8deb02c6d4e0fbc68993d0e013749ddb64736f6c63430008130033",
  "linkReferences": {},
  "deployedLinkReferences": {}
}