{
  "_format": "hh-sol-artifact-1",
  "contractName": "Controller",
  "sourceName": "contracts/Controller.sol",
  "abi": [
    {
      "inputs": [],
      "stateMutability": "nonpayable",
      "type": "constructor"
    },
    {
      "inputs": [],
      "name": "RevealDoesNotMatch",
      "type": "error"
    },
    {
      "inputs": [
        {
          "internalType": "bytes32",
          "name": "hash",
          "type": "bytes32"
        }
      ],
      "name": "TickerExpired",
      "type": "error"
    },
    {
      "anonymous": false,
      "inputs": [
        {
          "indexed": false,
          "internalType": "address",
          "name": "newInspector",
          "type": "address"
        }
      ],
      "name": "InspestorAuthorized",
      "type": "event"
    },
    {
      "anonymous": false,
      "inputs": [
        {
          "indexed": true,
          "internalType": "bytes32",
          "name": "hash",
          "type": "bytes32"
        },
        {
          "indexed": true,
          "internalType": "uint256",
          "name": "blockNumber",
          "type": "uint256"
        }
      ],
      "name": "MakeCommit",
      "type": "event"
    },
    {
      "anonymous": false,
      "inputs": [
        {
          "indexed": true,
          "internalType": "bytes32",
          "name": "hash",
          "type": "bytes32"
        },
        {
          "indexed": true,
          "internalType": "uint256",
          "name": "blockNumber",
          "type": "uint256"
        }
      ],
      "name": "MakeReveal",
      "type": "event"
    },
    {
      "anonymous": false,
      "inputs": [
        {
          "indexed": true,
          "internalType": "address",
          "name": "previousOwner",
          "type": "address"
        },
        {
          "indexed": true,
          "internalType": "address",
          "name": "newOwner",
          "type": "address"
        }
      ],
      "name": "OwnershipTransferred",
      "type": "event"
    },
    {
      "inputs": [
        {
          "internalType": "address",
          "name": "addr",
          "type": "address"
        }
      ],
      "name": "authorizeInspector",
      "outputs": [],
      "stateMutability": "nonpayable",
      "type": "function"
    },
    {
      "inputs": [
        {
          "internalType": "address",
          "name": "",
          "type": "address"
        }
      ],
      "name": "authorizedInspectors",
      "outputs": [
        {
          "internalType": "bool",
          "name": "",
          "type": "bool"
        }
      ],
      "stateMutability": "view",
      "type": "function"
    },
    {
      "inputs": [
        {
          "internalType": "bytes32",
          "name": "hashOfOrder",
          "type": "bytes32"
        }
      ],
      "name": "commit",
      "outputs": [],
      "stateMutability": "nonpayable",
      "type": "function"
    },
    {
      "inputs": [
        {
          "internalType": "bytes32",
          "name": "",
          "type": "bytes32"
        }
      ],
      "name": "commitments",
      "outputs": [
        {
          "internalType": "bytes32",
          "name": "hash",
          "type": "bytes32"
        },
        {
          "internalType": "bool",
          "name": "revealed",
          "type": "bool"
        },
        {
          "internalType": "uint256",
          "name": "blockId",
          "type": "uint256"
        }
      ],
      "stateMutability": "view",
      "type": "function"
    },
    {
      "inputs": [],
      "name": "getHashes",
      "outputs": [
        {
          "internalType": "bytes32[]",
          "name": "",
          "type": "bytes32[]"
        }
      ],
      "stateMutability": "view",
      "type": "function"
    },
    {
      "inputs": [
        {
          "internalType": "uint256",
          "name": "",
          "type": "uint256"
        }
      ],
      "name": "hashes",
      "outputs": [
        {
          "internalType": "bytes32",
          "name": "",
          "type": "bytes32"
        }
      ],
      "stateMutability": "view",
      "type": "function"
    },
    {
      "inputs": [],
      "name": "owner",
      "outputs": [
        {
          "internalType": "address",
          "name": "",
          "type": "address"
        }
      ],
      "stateMutability": "view",
      "type": "function"
    },
    {
      "inputs": [],
      "name": "renounceOwnership",
      "outputs": [],
      "stateMutability": "nonpayable",
      "type": "function"
    },
    {
      "inputs": [
        {
          "internalType": "string",
          "name": "tickerSymbol",
          "type": "string"
        },
        {
          "internalType": "string",
          "name": "orderType",
          "type": "string"
        },
        {
          "internalType": "string",
          "name": "accountType",
          "type": "string"
        },
        {
          "internalType": "uint256",
          "name": "quantity",
          "type": "uint256"
        },
        {
          "internalType": "uint256",
          "name": "price",
          "type": "uint256"
        },
        {
          "internalType": "uint256",
          "name": "timeInForce",
          "type": "uint256"
        },
        {
          "internalType": "enum Controller.Direction",
          "name": "direction",
          "type": "uint8"
        }
      ],
      "name": "reveal",
      "outputs": [],
      "stateMutability": "nonpayable",
      "type": "function"
    },
    {
      "inputs": [
        {
          "internalType": "bytes32",
          "name": "",
          "type": "bytes32"
        }
      ],
      "name": "reveals",
      "outputs": [
        {
          "internalType": "string",
          "name": "tickerSymbol",
          "type": "string"
        },
        {
          "internalType": "string",
          "name": "orderType",
          "type": "string"
        },
        {
          "internalType": "string",
          "name": "accountType",
          "type": "string"
        },
        {
          "internalType": "uint256",
          "name": "quantity",
          "type": "uint256"
        },
        {
          "internalType": "uint256",
          "name": "price",
          "type": "uint256"
        },
        {
          "internalType": "uint256",
          "name": "timeInForce",
          "type": "uint256"
        },
        {
          "internalType": "enum Controller.Direction",
          "name": "direction",
          "type": "uint8"
        }
      ],
      "stateMutability": "view",
      "type": "function"
    },
    {
      "inputs": [
        {
          "internalType": "address",
          "name": "newOwner",
          "type": "address"
        }
      ],
      "name": "transferOwnership",
      "outputs": [],
      "stateMutability": "nonpayable",
      "type": "function"
    }
  ],
  "bytecode": "0x608060405234801561001057600080fd5b5061002d61002261008a60201b60201c565b61009260201b60201c565b6001600460003373ffffffffffffffffffffffffffffffffffffffff1673ffffffffffffffffffffffffffffffffffffffff16815260200190815260200160002060006101000a81548160ff021916908315150217905550610156565b600033905090565b60008060009054906101000a900473ffffffffffffffffffffffffffffffffffffffff169050816000806101000a81548173ffffffffffffffffffffffffffffffffffffffff021916908373ffffffffffffffffffffffffffffffffffffffff1602179055508173ffffffffffffffffffffffffffffffffffffffff168173ffffffffffffffffffffffffffffffffffffffff167f8be0079c531659141344cd1fd0a4f28419497f9722a3daafe3b4186f6b6457e060405160405180910390a35050565b611593806101656000396000f3fe608060405234801561001057600080fd5b50600436106100a95760003560e01c80638da5cb5b116100715780638da5cb5b14610154578063a696897a14610172578063b840158b1461018e578063f14fcbc8146101c4578063f267964c146101e0578063f2fde38b14610210576100a9565b80634245d48e146100ae578063501895ae146100cc578063715018a6146100fc5780637c3d571e14610106578063839df94514610122575b600080fd5b6100b661022c565b6040516100c39190610b59565b60405180910390f35b6100e660048036038101906100e19190610bc5565b61028c565b6040516100f39190610c01565b60405180910390f35b6101046102b0565b005b610120600480360381019061011b9190610c7a565b6102c4565b005b61013c60048036038101906101379190610cd3565b61035e565b60405161014b93929190610d2a565b60405180910390f35b61015c610395565b6040516101699190610d70565b60405180910390f35b61018c60048036038101906101879190610ef6565b6103be565b005b6101a860048036038101906101a39190610cd3565b6105e3565b6040516101bb97969594939291906110e2565b60405180910390f35b6101de60048036038101906101d99190610cd3565b6107ca565b005b6101fa60048036038101906101f59190610c7a565b6108a4565b6040516102079190611166565b60405180910390f35b61022a60048036038101906102259190610c7a565b6108c4565b005b6060610236610947565b600180548060200260200160405190810160405280929190818152602001828054801561028257602002820191906000526020600020905b81548152602001906001019080831161026e575b5050505050905090565b6001818154811061029c57600080fd5b906000526020600020016000915090505481565b6102b8610947565b6102c260006109c5565b565b6102cc610947565b6001600460008373ffffffffffffffffffffffffffffffffffffffff1673ffffffffffffffffffffffffffffffffffffffff16815260200190815260200160002060006101000a81548160ff0219169083151502179055507f37024f21d800a5eeb6ef3aefd84b65b7d035e9929cf49c34090ea0107e28256b816040516103539190610d70565b60405180910390a150565b60026020528060005260406000206000915090508060000154908060010160009054906101000a900460ff16908060020154905083565b60008060009054906101000a900473ffffffffffffffffffffffffffffffffffffffff16905090565b6103c6610947565b6000878787878787876040516020016103e597969594939291906110e2565b6040516020818303038152906040528051906020012090506002600082815260200190815260200160002060000154811461044c576040517f612b431b00000000000000000000000000000000000000000000000000000000815260040160405180910390fd5b4283101561049157806040517fec3244c40000000000000000000000000000000000000000000000000000000081526004016104889190610c01565b60405180910390fd5b6040518060e001604052808981526020018881526020018781526020018681526020018581526020018481526020018360018111156104d3576104d261106b565b5b8152506003600083815260200190815260200160002060008201518160000190816104fe919061138d565b506020820151816001019081610514919061138d565b50604082015181600201908161052a919061138d565b50606082015181600301556080820151816004015560a0820151816005015560c08201518160060160006101000a81548160ff021916908360018111156105745761057361106b565b5b021790555090505060016002600083815260200190815260200160002060010160006101000a81548160ff02191690831515021790555043817f32c09e1da831d4b5405fb28e357d656a8c5c242036c20e419abf37c009dcd38360405160405180910390a35050505050505050565b6003602052806000526040600020600091509050806000018054610606906111b0565b80601f0160208091040260200160405190810160405280929190818152602001828054610632906111b0565b801561067f5780601f106106545761010080835404028352916020019161067f565b820191906000526020600020905b81548152906001019060200180831161066257829003601f168201915b505050505090806001018054610694906111b0565b80601f01602080910402602001604051908101604052809291908181526020018280546106c0906111b0565b801561070d5780601f106106e25761010080835404028352916020019161070d565b820191906000526020600020905b8154815290600101906020018083116106f057829003601f168201915b505050505090806002018054610722906111b0565b80601f016020809104026020016040519081016040528092919081815260200182805461074e906111b0565b801561079b5780601f106107705761010080835404028352916020019161079b565b820191906000526020600020905b81548152906001019060200180831161077e57829003601f168201915b5050505050908060030154908060040154908060050154908060060160009054906101000a900460ff16905087565b6107d2610947565b60004390506000604051806060016040528084815260200160001515815260200183815250905060018160000151908060018154018082558091505060019003906000526020600020016000909190919091505580600260008581526020019081526020016000206000820151816000015560208201518160010160006101000a81548160ff0219169083151502179055506040820151816002015590505043837fa5119fee045a144810e317f428d33f820aa2a6b6c57fc36f8792d5c7231143b360405160405180910390a3505050565b60046020528060005260406000206000915054906101000a900460ff1681565b6108cc610947565b600073ffffffffffffffffffffffffffffffffffffffff168173ffffffffffffffffffffffffffffffffffffffff160361093b576040517f08c379a0000000000000000000000000000000000000000000000000000000008152600401610932906114d1565b60405180910390fd5b610944816109c5565b50565b61094f610a89565b73ffffffffffffffffffffffffffffffffffffffff1661096d610395565b73ffffffffffffffffffffffffffffffffffffffff16146109c3576040517f08c379a00000000000000000000000000000000000000000000000000000000081526004016109ba9061153d565b60405180910390fd5b565b60008060009054906101000a900473ffffffffffffffffffffffffffffffffffffffff169050816000806101000a81548173ffffffffffffffffffffffffffffffffffffffff021916908373ffffffffffffffffffffffffffffffffffffffff1602179055508173ffffffffffffffffffffffffffffffffffffffff168173ffffffffffffffffffffffffffffffffffffffff167f8be0079c531659141344cd1fd0a4f28419497f9722a3daafe3b4186f6b6457e060405160405180910390a35050565b600033905090565b600081519050919050565b600082825260208201905092915050565b6000819050602082019050919050565b6000819050919050565b610ad081610abd565b82525050565b6000610ae28383610ac7565b60208301905092915050565b6000602082019050919050565b6000610b0682610a91565b610b108185610a9c565b9350610b1b83610aad565b8060005b83811015610b4c578151610b338882610ad6565b9750610b3e83610aee565b925050600181019050610b1f565b5085935050505092915050565b60006020820190508181036000830152610b738184610afb565b905092915050565b6000604051905090565b600080fd5b600080fd5b6000819050919050565b610ba281610b8f565b8114610bad57600080fd5b50565b600081359050610bbf81610b99565b92915050565b600060208284031215610bdb57610bda610b85565b5b6000610be984828501610bb0565b91505092915050565b610bfb81610abd565b82525050565b6000602082019050610c166000830184610bf2565b92915050565b600073ffffffffffffffffffffffffffffffffffffffff82169050919050565b6000610c4782610c1c565b9050919050565b610c5781610c3c565b8114610c6257600080fd5b50565b600081359050610c7481610c4e565b92915050565b600060208284031215610c9057610c8f610b85565b5b6000610c9e84828501610c65565b91505092915050565b610cb081610abd565b8114610cbb57600080fd5b50565b600081359050610ccd81610ca7565b92915050565b600060208284031215610ce957610ce8610b85565b5b6000610cf784828501610cbe565b91505092915050565b60008115159050919050565b610d1581610d00565b82525050565b610d2481610b8f565b82525050565b6000606082019050610d3f6000830186610bf2565b610d4c6020830185610d0c565b610d596040830184610d1b565b949350505050565b610d6a81610c3c565b82525050565b6000602082019050610d856000830184610d61565b92915050565b600080fd5b600080fd5b6000601f19601f8301169050919050565b7f4e487b7100000000000000000000000000000000000000000000000000000000600052604160045260246000fd5b610dde82610d95565b810181811067ffffffffffffffff82111715610dfd57610dfc610da6565b5b80604052505050565b6000610e10610b7b565b9050610e1c8282610dd5565b919050565b600067ffffffffffffffff821115610e3c57610e3b610da6565b5b610e4582610d95565b9050602081019050919050565b82818337600083830152505050565b6000610e74610e6f84610e21565b610e06565b905082815260208101848484011115610e9057610e8f610d90565b5b610e9b848285610e52565b509392505050565b600082601f830112610eb857610eb7610d8b565b5b8135610ec8848260208601610e61565b91505092915050565b60028110610ede57600080fd5b50565b600081359050610ef081610ed1565b92915050565b600080600080600080600060e0888a031215610f1557610f14610b85565b5b600088013567ffffffffffffffff811115610f3357610f32610b8a565b5b610f3f8a828b01610ea3565b975050602088013567ffffffffffffffff811115610f6057610f5f610b8a565b5b610f6c8a828b01610ea3565b965050604088013567ffffffffffffffff811115610f8d57610f8c610b8a565b5b610f998a828b01610ea3565b9550506060610faa8a828b01610bb0565b9450506080610fbb8a828b01610bb0565b93505060a0610fcc8a828b01610bb0565b92505060c0610fdd8a828b01610ee1565b91505092959891949750929550565b600081519050919050565b600082825260208201905092915050565b60005b8381101561102657808201518184015260208101905061100b565b60008484015250505050565b600061103d82610fec565b6110478185610ff7565b9350611057818560208601611008565b61106081610d95565b840191505092915050565b7f4e487b7100000000000000000000000000000000000000000000000000000000600052602160045260246000fd5b600281106110ab576110aa61106b565b5b50565b60008190506110bc8261109a565b919050565b60006110cc826110ae565b9050919050565b6110dc816110c1565b82525050565b600060e08201905081810360008301526110fc818a611032565b905081810360208301526111108189611032565b905081810360408301526111248188611032565b90506111336060830187610d1b565b6111406080830186610d1b565b61114d60a0830185610d1b565b61115a60c08301846110d3565b98975050505050505050565b600060208201905061117b6000830184610d0c565b92915050565b7f4e487b7100000000000000000000000000000000000000000000000000000000600052602260045260246000fd5b600060028204905060018216806111c857607f821691505b6020821081036111db576111da611181565b5b50919050565b60008190508160005260206000209050919050565b60006020601f8301049050919050565b600082821b905092915050565b6000600883026112437fffffffffffffffffffffffffffffffffffffffffffffffffffffffffffffffff82611206565b61124d8683611206565b95508019841693508086168417925050509392505050565b6000819050919050565b600061128a61128561128084610b8f565b611265565b610b8f565b9050919050565b6000819050919050565b6112a48361126f565b6112b86112b082611291565b848454611213565b825550505050565b600090565b6112cd6112c0565b6112d881848461129b565b505050565b5b818110156112fc576112f16000826112c5565b6001810190506112de565b5050565b601f82111561134157611312816111e1565b61131b846111f6565b8101602085101561132a578190505b61133e611336856111f6565b8301826112dd565b50505b505050565b600082821c905092915050565b600061136460001984600802611346565b1980831691505092915050565b600061137d8383611353565b9150826002028217905092915050565b61139682610fec565b67ffffffffffffffff8111156113af576113ae610da6565b5b6113b982546111b0565b6113c4828285611300565b600060209050601f8311600181146113f757600084156113e5578287015190505b6113ef8582611371565b865550611457565b601f198416611405866111e1565b60005b8281101561142d57848901518255600182019150602085019450602081019050611408565b8683101561144a5784890151611446601f891682611353565b8355505b6001600288020188555050505b505050505050565b7f4f776e61626c653a206e6577206f776e657220697320746865207a65726f206160008201527f6464726573730000000000000000000000000000000000000000000000000000602082015250565b60006114bb602683610ff7565b91506114c68261145f565b604082019050919050565b600060208201905081810360008301526114ea816114ae565b9050919050565b7f4f776e61626c653a2063616c6c6572206973206e6f7420746865206f776e6572600082015250565b6000611527602083610ff7565b9150611532826114f1565b602082019050919050565b600060208201905081810360008301526115568161151a565b905091905056fea264697066735822122013d62bde1acbf065ab962c83e85567dd6c8efb2cb239cfea9c7534318577667364736f6c63430008130033",
  "linkReferences": {},
  "deployedLinkReferences": {}
}