{
  "_format": "hh-sol-artifact-1",
  "contractName": "Controller",
  "sourceName": "contracts/Controller.sol",
  "abi": [
    {
      "anonymous": false,
      "inputs": [
        {
          "indexed": true,
          "internalType": "address",
          "name": "previousOwner",
          "type": "address"
        },
        {
          "indexed": true,
          "internalType": "address",
          "name": "newOwner",
          "type": "address"
        }
      ],
      "name": "OwnershipTransferred",
      "type": "event"
    },
    {
      "anonymous": false,
      "inputs": [
        {
          "indexed": true,
          "internalType": "bytes32",
          "name": "hash",
          "type": "bytes32"
        },
        {
          "indexed": true,
          "internalType": "uint256",
          "name": "blockNumber",
          "type": "uint256"
        }
      ],
      "name": "makeCommit",
      "type": "event"
    },
    {
      "anonymous": false,
      "inputs": [
        {
          "indexed": true,
          "internalType": "bytes32",
          "name": "hash",
          "type": "bytes32"
        },
        {
          "indexed": true,
          "internalType": "uint256",
          "name": "blockNumber",
          "type": "uint256"
        }
      ],
      "name": "makeReveal",
      "type": "event"
    },
    {
      "inputs": [
        {
          "internalType": "bytes32",
          "name": "hashOfOrder",
          "type": "bytes32"
        }
      ],
      "name": "commit",
      "outputs": [],
      "stateMutability": "nonpayable",
      "type": "function"
    },
    {
      "inputs": [
        {
          "internalType": "bytes32",
          "name": "",
          "type": "bytes32"
        }
      ],
      "name": "commitments",
      "outputs": [
        {
          "internalType": "bytes32",
          "name": "hash",
          "type": "bytes32"
        },
        {
          "internalType": "bool",
          "name": "complete",
          "type": "bool"
        }
      ],
      "stateMutability": "view",
      "type": "function"
    },
    {
      "inputs": [],
      "name": "owner",
      "outputs": [
        {
          "internalType": "address",
          "name": "",
          "type": "address"
        }
      ],
      "stateMutability": "view",
      "type": "function"
    },
    {
      "inputs": [],
      "name": "renounceOwnership",
      "outputs": [],
      "stateMutability": "nonpayable",
      "type": "function"
    },
    {
      "inputs": [
        {
          "internalType": "string",
          "name": "tickerSymbol",
          "type": "string"
        },
        {
          "internalType": "string",
          "name": "orderType",
          "type": "string"
        },
        {
          "internalType": "string",
          "name": "accountType",
          "type": "string"
        },
        {
          "internalType": "uint256",
          "name": "quantity",
          "type": "uint256"
        },
        {
          "internalType": "uint256",
          "name": "price",
          "type": "uint256"
        },
        {
          "internalType": "uint256",
          "name": "timeInForce",
          "type": "uint256"
        },
        {
          "internalType": "uint256",
          "name": "direction",
          "type": "uint256"
        }
      ],
      "name": "reveal",
      "outputs": [],
      "stateMutability": "nonpayable",
      "type": "function"
    },
    {
      "inputs": [
        {
          "internalType": "address",
          "name": "newOwner",
          "type": "address"
        }
      ],
      "name": "transferOwnership",
      "outputs": [],
      "stateMutability": "nonpayable",
      "type": "function"
    }
  ],
  "bytecode": "0x608060405234801561001057600080fd5b5061002d61002261003260201b60201c565b61003a60201b60201c565b6100fe565b600033905090565b60008060009054906101000a900473ffffffffffffffffffffffffffffffffffffffff169050816000806101000a81548173ffffffffffffffffffffffffffffffffffffffff021916908373ffffffffffffffffffffffffffffffffffffffff1602179055508173ffffffffffffffffffffffffffffffffffffffff168173ffffffffffffffffffffffffffffffffffffffff167f8be0079c531659141344cd1fd0a4f28419497f9722a3daafe3b4186f6b6457e060405160405180910390a35050565b610ae48061010d6000396000f3fe608060405234801561001057600080fd5b50600436106100625760003560e01c80634aa57d4514610067578063715018a614610083578063839df9451461008d5780638da5cb5b146100be578063f14fcbc8146100dc578063f2fde38b146100f8575b600080fd5b610081600480360381019061007c919061063d565b610114565b005b61008b6101db565b005b6100a760048036038101906100a29190610769565b6101ef565b6040516100b59291906107c0565b60405180910390f35b6100c6610220565b6040516100d3919061082a565b60405180910390f35b6100f660048036038101906100f19190610769565b610249565b005b610112600480360381019061010d9190610871565b6102e0565b005b61011c610363565b60008787878787878760405160200161013b979695949392919061092c565b6040516020818303038152906040528051906020012090506001600082815260200190815260200160002060000154811461017557600080fd5b600180600083815260200190815260200160002060010160006101000a81548160ff02191690831515021790555043817fd06d2cd2a7a444279c9575b4fed2c99c89a879973c8ddc9c575bb45ae9a960f860405160405180910390a35050505050505050565b6101e3610363565b6101ed60006103e1565b565b60016020528060005260406000206000915090508060000154908060010160009054906101000a900460ff16905082565b60008060009054906101000a900473ffffffffffffffffffffffffffffffffffffffff16905090565b610251610363565b6000604051806040016040528083815260200160001515815250905080600160008481526020019081526020016000206000820151816000015560208201518160010160006101000a81548160ff02191690831515021790555090505043827f6d0ba7cc8c3c3b569f47c7e16a40343933f34ad78cdf8438d1b838efaf0cb18760405160405180910390a35050565b6102e8610363565b600073ffffffffffffffffffffffffffffffffffffffff168173ffffffffffffffffffffffffffffffffffffffff1603610357576040517f08c379a000000000000000000000000000000000000000000000000000000000815260040161034e90610a22565b60405180910390fd5b610360816103e1565b50565b61036b6104a5565b73ffffffffffffffffffffffffffffffffffffffff16610389610220565b73ffffffffffffffffffffffffffffffffffffffff16146103df576040517f08c379a00000000000000000000000000000000000000000000000000000000081526004016103d690610a8e565b60405180910390fd5b565b60008060009054906101000a900473ffffffffffffffffffffffffffffffffffffffff169050816000806101000a81548173ffffffffffffffffffffffffffffffffffffffff021916908373ffffffffffffffffffffffffffffffffffffffff1602179055508173ffffffffffffffffffffffffffffffffffffffff168173ffffffffffffffffffffffffffffffffffffffff167f8be0079c531659141344cd1fd0a4f28419497f9722a3daafe3b4186f6b6457e060405160405180910390a35050565b600033905090565b6000604051905090565b600080fd5b600080fd5b600080fd5b600080fd5b6000601f19601f8301169050919050565b7f4e487b7100000000000000000000000000000000000000000000000000000000600052604160045260246000fd5b610514826104cb565b810181811067ffffffffffffffff82111715610533576105326104dc565b5b80604052505050565b60006105466104ad565b9050610552828261050b565b919050565b600067ffffffffffffffff821115610572576105716104dc565b5b61057b826104cb565b9050602081019050919050565b82818337600083830152505050565b60006105aa6105a584610557565b61053c565b9050828152602081018484840111156105c6576105c56104c6565b5b6105d1848285610588565b509392505050565b600082601f8301126105ee576105ed6104c1565b5b81356105fe848260208601610597565b91505092915050565b6000819050919050565b61061a81610607565b811461062557600080fd5b50565b60008135905061063781610611565b92915050565b600080600080600080600060e0888a03121561065c5761065b6104b7565b5b600088013567ffffffffffffffff81111561067a576106796104bc565b5b6106868a828b016105d9565b975050602088013567ffffffffffffffff8111156106a7576106a66104bc565b5b6106b38a828b016105d9565b965050604088013567ffffffffffffffff8111156106d4576106d36104bc565b5b6106e08a828b016105d9565b95505060606106f18a828b01610628565b94505060806107028a828b01610628565b93505060a06107138a828b01610628565b92505060c06107248a828b01610628565b91505092959891949750929550565b6000819050919050565b61074681610733565b811461075157600080fd5b50565b6000813590506107638161073d565b92915050565b60006020828403121561077f5761077e6104b7565b5b600061078d84828501610754565b91505092915050565b61079f81610733565b82525050565b60008115159050919050565b6107ba816107a5565b82525050565b60006040820190506107d56000830185610796565b6107e260208301846107b1565b9392505050565b600073ffffffffffffffffffffffffffffffffffffffff82169050919050565b6000610814826107e9565b9050919050565b61082481610809565b82525050565b600060208201905061083f600083018461081b565b92915050565b61084e81610809565b811461085957600080fd5b50565b60008135905061086b81610845565b92915050565b600060208284031215610887576108866104b7565b5b60006108958482850161085c565b91505092915050565b600081519050919050565b600082825260208201905092915050565b60005b838110156108d85780820151818401526020810190506108bd565b60008484015250505050565b60006108ef8261089e565b6108f981856108a9565b93506109098185602086016108ba565b610912816104cb565b840191505092915050565b61092681610607565b82525050565b600060e0820190508181036000830152610946818a6108e4565b9050818103602083015261095a81896108e4565b9050818103604083015261096e81886108e4565b905061097d606083018761091d565b61098a608083018661091d565b61099760a083018561091d565b6109a460c083018461091d565b98975050505050505050565b7f4f776e61626c653a206e6577206f776e657220697320746865207a65726f206160008201527f6464726573730000000000000000000000000000000000000000000000000000602082015250565b6000610a0c6026836108a9565b9150610a17826109b0565b604082019050919050565b60006020820190508181036000830152610a3b816109ff565b9050919050565b7f4f776e61626c653a2063616c6c6572206973206e6f7420746865206f776e6572600082015250565b6000610a786020836108a9565b9150610a8382610a42565b602082019050919050565b60006020820190508181036000830152610aa781610a6b565b905091905056fea264697066735822122008fc5e9d5bf37308ba6de3b3b1557ae8e2402187be47d0527e77d750c0b9abd264736f6c63430008130033",
  "linkReferences": {},
  "deployedLinkReferences": {}
}